:020000040000fa
:080000000002040000000000f2
:020000040000fa
:04000800c80200002a
:020000040000fa
:04000c00c802000026
:020000040000fa
:04001000c802000022
:020000040000fa
:04001400c80200001e
:020000040000fa
:04001800c80200001a
:020000040000fa
:04001c00c802000016
:020000040000fa
:04002000c802000012
:020000040000fa
:04002400c80200000e
:020000040000fa
:04002800c80200000a
:020000040000fa
:04002c00c802000006
:020000040000fa
:04003000c802000002
:020000040000fa
:04003400c8020000fe
:020000040000fa
:04003800c8020000fa
:020000040000fa
:04003c00c8020000f6
:020000040000fa
:04004000c8020000f2
:020000040000fa
:04004400c8020000ee
:020000040000fa
:04004800c8020000ea
:020000040000fa
:04004c00c8020000e6
:020000040000fa
:04005000c8020000e2
:020000040000fa
:04005400c8020000de
:020000040000fa
:04005800c8020000da
:020000040000fa
:04005c00c8020000d6
:020000040000fa
:04006000c8020000d2
:020000040000fa
:04006400c8020000ce
:020000040000fa
:04006800c8020000ca
:020000040000fa
:04006c00c8020000c6
:020000040000fa
:04007000c8020000c2
:020000040000fa
:04007400c8020000be
:020000040000fa
:04007800c8020000ba
:020000040000fa
:04007c00c8020000b6
:020000040000fa
:04008000c8020000b2
:020000040000fa
:04008400c8020000ae
:020000040000fa
:04008800c8020000aa
:020000040000fa
:04008c00c8020000a6
:020000040000fa
:04009000c8020000a2
:020000040000fa
:04009400c80200009e
:020000040000fa
:04009800c80200009a
:020000040000fa
:04009c00c802000096
:020000040000fa
:0400a000c802000092
:020000040000fa
:0400a400c80200008e
:020000040000fa
:0400a800c80200008a
:020000040000fa
:0400ac00c802000086
:020000040000fa
:0400b000c802000082
:020000040000fa
:0400b400c80200007e
:020000040000fa
:0400b800c80200007a
:020000040000fa
:0400bc00c802000076
:020000040000fa
:0400c000c802000072
:020000040000fa
:0400c400c80200006e
:020000040000fa
:0400c800c80200006a
:020000040000fa
:0400cc00c802000066
:020000040000fa
:0400d000c802000062
:020000040000fa
:0400d400c80200005e
:020000040000fa
:0400d800c80200005a
:020000040000fa
:0400dc00c802000056
:020000040000fa
:0400e000c802000052
:020000040000fa
:0400e400c80200004e
:020000040000fa
:0400e800c80200004a
:020000040000fa
:0400ec00c802000046
:020000040000fa
:0400f000c802000042
:020000040000fa
:0400f400c80200003e
:020000040000fa
:0400f800c80200003a
:020000040000fa
:0400fc00c802000036
:020000040000fa
:04010000c802000031
:020000040000fa
:04010400c80200002d
:020000040000fa
:04010800c802000029
:020000040000fa
:04010c00c802000025
:020000040000fa
:04011000c802000021
:020000040000fa
:04011400c80200001d
:020000040000fa
:04011800c802000019
:020000040000fa
:04011c00c802000015
:020000040000fa
:04012000c802000011
:020000040000fa
:04012400c80200000d
:020000040000fa
:04012800c802000009
:020000040000fa
:04012c00c802000005
:020000040000fa
:04013000c802000001
:020000040000fa
:04013400c8020000fd
:020000040000fa
:04013800c8020000f9
:020000040000fa
:04013c00c8020000f5
:020000040000fa
:04014000c8020000f1
:020000040000fa
:04014400c8020000ed
:020000040000fa
:04014800c8020000e9
:020000040000fa
:04020800c802000028
:020000040000fa
:04020c00c802000024
:020000040000fa
:04021000c802000020
:020000040000fa
:04021400c80200001c
:020000040000fa
:04021800c802000018
:020000040000fa
:04021c00c802000014
:020000040000fa
:04022000c802000010
:020000040000fa
:04022400c80200000c
:020000040000fa
:04022800c802000008
:020000040000fa
:04022c00c802000004
:020000040000fa
:04023000c802000000
:020000040000fa
:04023400c8020000fc
:020000040000fa
:04023800c8020000f8
:020000040000fa
:04023c00c8020000f4
:020000040000fa
:04024000c8020000f0
:020000040000fa
:04024400c8020000ec
:020000040000fa
:04024800c8020000e8
:020000040000fa
:04024c00c8020000e4
:020000040000fa
:04025000c8020000e0
:020000040000fa
:04025400c8020000dc
:020000040000fa
:04025800c8020000d8
:020000040000fa
:04025c00c8020000d4
:020000040000fa
:04026000c8020000d0
:020000040000fa
:04026400c8020000cc
:020000040000fa
:04026800c8020000c8
:020000040000fa
:04026c00c8020000c4
:020000040000fa
:04027000c8020000c0
:020000040000fa
:04027400c8020000bc
:020000040000fa
:04027800c8020000b8
:020000040000fa
:04027c00c8020000b4
:020000040000fa
:04028000c8020000b0
:020000040000fa
:04028400c8020000ac
:020000040000fa
:04028800c8020000a8
:020000040000fa
:04028c00c8020000a4
:020000040000fa
:04029000c8020000a0
:020000040000fa
:04029400c80200009c
:020000040000fa
:04029800c802000098
:020000040000fa
:04029c00c802000094
:020000040000fa
:0402a000c802000090
:020000040000fa
:0402a400c80200008c
:020000040000fa
:0402a800c802000088
:020000040000fa
:0402ac00c802000084
:020000040000fa
:0402b000c802000080
:020000040000fa
:0402b400c80200007c
:020000040000fa
:0402b800c802000078
:020000040000fa
:0402bc00c802000074
:020000040000fa
:0402c000c802000070
:020000040000fa
:0402c400c80200006c
:020000040000fa
:0402c800c802000068
:020000040000fa
:0402cc00c802000064
:020000040000fa
:0402d000c802000060
:020000040000fa
:0402d400c80200005c
:020000040000fa
:0402d800c802000058
:020000040000fa
:0402dc00c802000054
:020000040000fa
:0402e000c802000050
:020000040000fa
:0402e400c80200004c
:020000040000fa
:0402e800c802000048
:020000040000fa
:0402ec00c802000044
:020000040000fa
:0402f000c802000040
:020000040000fa
:0402f400c80200003c
:020000040000fa
:0402f800c802000038
:020000040000fa
:0402fc00c802000034
:020000040000fa
:04030000c80200002f
:020000040000fa
:04030400c80200002b
:020000040000fa
:04030800c802000027
:020000040000fa
:04030c00c802000023
:020000040000fa
:04031000c80200001f
:020000040000fa
:04031400c80200001b
:020000040000fa
:04031800c802000017
:020000040000fa
:04031c00c802000013
:020000040000fa
:04032000c80200000f
:020000040000fa
:04032400c80200000b
:020000040000fa
:04032800c802000007
:020000040000fa
:04032c00c802000003
:020000040000fa
:04033000c8020000ff
:020000040000fa
:04033400c8020000fb
:020000040000fa
:04033800c8020000f7
:020000040000fa
:04033c00c8020000f3
:020000040000fa
:04034000c8020000ef
:020000040000fa
:04034400c8020000eb
:020000040000fa
:04034800c8020000e7
:020000040000fa
:100400006f8420000e7f22000e0188000000000093
:10041000000020000000e000020032000001200087
:1004200020028800140007005b0007000000e000c5
:1004300003003a00605a200001002000020037004b
:100440000000200001002000810f70000100320038
:1004500014000700000020000000e000020032004d
:1004600000000200000000008805020000000000fb
:100470000040da000000fe004440a9000001200016
:100480000000e0000300320000002000a00188000e
:100490004440a800000006008a1f78008b1f7800e7
:1004a0000000060091018800800478000000eb0045
:1004b0001a003700e284440032a0b4009905ba0063
:1004c000e284440032a0b4009906ba00e2844400f9
:1004d00032a0b4000006eb00476fde00fd07b2005b
:1004e000636ce10003003a00ebff07000000eb0043
:1004f0000a003700606ce10004003a00005deb0088
:100500008b05e900fdff3e00040037006168e10053
:10051000010032000086eb000b00070019c7ba008b
:100520001905ba000e04e00003003a000a00e000da
:10053000e0ff3a0000000600fe07b2009e018800be
:100540008a047800f5ff3700395dba008b05e900b1
:100550000c003200295dba008b05e900080032006a
:100560000c00e00003003a00e284440032a0b40032
:10057000f5ff370019ddba008b05e900faff3a00f4
:100580008904e800e184440032a0b40000000600c1
:0c0590000040da000000fe000000050042
:020000040000fa
:10059c0020480000454c00004c4f0000202000007b
:1005ac00205700006f7200006c6400000000000017
:020000040000fa
:1005bc000200fa00004f78001602a80000000000ac
:1005cc00b0108000610060000000e000fcff3a0009
:1005dc008a40a900c007200090108800000000008d
:1005ec0050048000640060000000e000fcff32005a
:1005fc008a40a9001222ef00000000005004800085
:10060c00640060000000e000fcff32008a40a9009a
:10061c001e00fb00901088000000000050048000b9
:10062c00640060000000e000fcff32008a40a9007a
:10063c001642a80000000000b010800064006000aa
:10064c000000e000fcff3a008a40a9000080fa009c
:10065c00000006000200fa002003200057010700ea
:10066c0080c3b300d2ff070090c3b300d0ff0700d4
:10067c0040c1b300ceff070000c8bf006f4f600041
:10068c0000c7b3001e4f70001e407800c8ff070063
:10069c0000c8bf000080fb004400de00004f780063
:1006ac009e40780063cf600040c5b3001e4f7000c1
:1006bc001e407800beff0700c0c6b300bcff070099
:1006cc00800c20003d01070080c3b300b8ff070079
:1006dc00c0c0b300b6ff070010c0b300b4ff0700e2
:1006ec0020002000350107000080fa000000060001
:1006fc000400fa00204798003147980000c4b3006a
:10070c00004f78002e4090000080fb004600dd007a
:10071c00804078001e40780000c06000004f7800d8
:10072c003e4090006f406000304798003e40900083
:10073c001e4f700000c8b3001e4f70001e407800a2
:10074c009bff07000080fa00000006000200fa0080
:10075c00004f78001602a80000000000b0108000c6
:10076c00610060000000e000fcff3a008a40a90034
:10077c00c00720009010880000000000500480008a
:10078c00640060000000e000fcff32008a40a90019
:10079c00000420009010880000000000500480002d
:1007ac00640060000000e000fcff32008a40a900f9
:1007bc001e00fb0090108800000000005004800018
:1007cc00640060000000e000fcff32008a40a900d9
:1007dc001642a80000000000b01080006400600009
:1007ec000000e000fcff3a008a40a9000080fa00fb
:1007fc00000006000400fa00100798000000eb004f
:10080c00000f78000b0037001e009000104078009d
:10081c00ceff07001e0090000000e80010079800b3
:10082c001e009000104078000004e000050032002b
:10083c001e0fe8001e007800e70f5000f2ff340096
:10084c0001003700000000008040eb0010c0b30036
:10085c00a7ff07000b0037001e0090001040780027
:10086c00baff07001e0090000000e8001007980077
:10087c001e009000104078000004e00005003200db
:10088c001e0fe8001e007800ef0f5000f2ff34003e
:10089c0001003700000000000080fa000000060094
:1008ac000600fa0010079800210798000000eb00e2
:1008bc00000f78002e009000004078008040eb0084
:1008cc008bff07001e0078009e0090000080400007
:1008dc001040780080407800100020001c000700b9
:1008ec0010002000000f78000e0037001e0078006a
:1008fc009e00900000804000104078000004e00052
:10090c000d0032001e0078009e0090000080400018
:10091c001040780080407800100020003300070061
:10092c001e0fe800700220009e007800808f50009f
:10093c00eeff34000100370000000000c1c0b3001e
:10094c000000eb00410007000080fa0000000600e8
:10095c000400fa00000f7800214798001602a80046
:10096c0000000000b0108000610060000000e0009a
:10097c00fcff3a008a40a900c007200090108800b4
:10098c000000000050048000640060000000e000e3
:10099c00fcff32008a40a9001e0078004600dd00f2
:1009ac000070a0009010880000000000500480002f
:1009bc00640060000000e000fcff32008a40a900e7
:1009cc002e4090000000fb009010880000000000fa
:1009dc0050048000640060000000e000fcff320066
:1009ec008a40a9000080fa00000006000400fa000a
:1009fc00000f7800214798001e0078004600dd00ab
:100a0c000070a000901088000000000050048000ce
:100a1c00640060000000e000fcff32008a40a90086
:100a2c002e4090000000fb00901088000000000099
:100a3c0050048000640060000000e000fcff320005
:100a4c008a40a9000080fa00000006000400fa00a9
:100a5c00000f7800214798001e0078004600dd004a
:100a6c0090108800000000005004800064006000ba
:100a7c000000e000fcff32008a40a9002e409000ec
:100a8c000000fb0090108800000000005004800063
:100a9c00640060000000e000fcff32008a40a90006
:100aac001642a80000000000b01080006400600036
:100abc000000e000fcff3a008a40a9000080fa0028
:100acc00000006000000fa00213a8000f08f2f0091
:100adc0000806000203a8800f0ff2900601988002f
:100aec00c022ef00c822ef0017e2a900d0092000b5
:100afc00a010880017e2a8008a40a9000080fa0024
:100b0c00000006000000fa00eeff0700d1fe07000f
:100b1c008000eb002080200061ff07001100200006
:100b2c00f08020005eff0700401f2000230007001c
:100b3c00c402aa0080c1b3009dfe0700faff370073
:020000040000fa
:100b4c000008000002000000020000001700000076
:100b5c0002080000440000000200000048656c0020
:100b6c006c6f2000576f72006c642100005e2800cf
:100b7c00205e2e005e2029005e202000283e2000f2
:100b8c005e2e5e00293e2000205e2800205e2e0096
:100b9c005e2029005e2020003c285e002e5e200096
:100bac003c29200020762800205e2e005e202900a3
:0c0bbc0076202000000000000000000077
:020000040000fa
:100bc8000400fa00100798000000eb00000f7800fe
:100bd800020037000a0007001e0fe8001e00900000
:100be8009e007800808f5000faff35000080fa00e0
:100bf8000000060039060900000000000000060099
:0c0c0800733e0900000000000000060020
:020000040000fa
:020000040001f9
:0457f8000ff90000a5
:020000040000fa
:020000040001f9
:0457fc007f3f0000eb
:00000001FF
