:020000040000fa
:080000000002040000000000f2
:020000040000fa
:04000800c80200002a
:020000040000fa
:04000c00c802000026
:020000040000fa
:04001000c802000022
:020000040000fa
:04001400c80200001e
:020000040000fa
:04001800c80200001a
:020000040000fa
:04001c00c802000016
:020000040000fa
:04002000c802000012
:020000040000fa
:04002400c80200000e
:020000040000fa
:04002800c80200000a
:020000040000fa
:04002c00c802000006
:020000040000fa
:04003000c802000002
:020000040000fa
:04003400c8020000fe
:020000040000fa
:04003800c8020000fa
:020000040000fa
:04003c00c8020000f6
:020000040000fa
:04004000c8020000f2
:020000040000fa
:04004400c8020000ee
:020000040000fa
:04004800c8020000ea
:020000040000fa
:04004c00c8020000e6
:020000040000fa
:04005000c8020000e2
:020000040000fa
:04005400c8020000de
:020000040000fa
:04005800c8020000da
:020000040000fa
:04005c00c8020000d6
:020000040000fa
:04006000c8020000d2
:020000040000fa
:04006400c8020000ce
:020000040000fa
:04006800c8020000ca
:020000040000fa
:04006c00c8020000c6
:020000040000fa
:04007000c8020000c2
:020000040000fa
:04007400c8020000be
:020000040000fa
:04007800c8020000ba
:020000040000fa
:04007c00c8020000b6
:020000040000fa
:04008000c8020000b2
:020000040000fa
:04008400c8020000ae
:020000040000fa
:04008800c8020000aa
:020000040000fa
:04008c00c8020000a6
:020000040000fa
:04009000c8020000a2
:020000040000fa
:04009400c80200009e
:020000040000fa
:04009800c80200009a
:020000040000fa
:04009c00c802000096
:020000040000fa
:0400a000c802000092
:020000040000fa
:0400a400c80200008e
:020000040000fa
:0400a800c80200008a
:020000040000fa
:0400ac00c802000086
:020000040000fa
:0400b000c802000082
:020000040000fa
:0400b400c80200007e
:020000040000fa
:0400b800c80200007a
:020000040000fa
:0400bc00c802000076
:020000040000fa
:0400c000c802000072
:020000040000fa
:0400c400c80200006e
:020000040000fa
:0400c800c80200006a
:020000040000fa
:0400cc00c802000066
:020000040000fa
:0400d000c802000062
:020000040000fa
:0400d400c80200005e
:020000040000fa
:0400d800c80200005a
:020000040000fa
:0400dc00c802000056
:020000040000fa
:0400e000c802000052
:020000040000fa
:0400e400c80200004e
:020000040000fa
:0400e800c80200004a
:020000040000fa
:0400ec00c802000046
:020000040000fa
:0400f000c802000042
:020000040000fa
:0400f400c80200003e
:020000040000fa
:0400f800c80200003a
:020000040000fa
:0400fc00c802000036
:020000040000fa
:04010000c802000031
:020000040000fa
:04010400c80200002d
:020000040000fa
:04010800c802000029
:020000040000fa
:04010c00c802000025
:020000040000fa
:04011000c802000021
:020000040000fa
:04011400c80200001d
:020000040000fa
:04011800c802000019
:020000040000fa
:04011c00c802000015
:020000040000fa
:04012000c802000011
:020000040000fa
:04012400c80200000d
:020000040000fa
:04012800c802000009
:020000040000fa
:04012c00c802000005
:020000040000fa
:04013000c802000001
:020000040000fa
:04013400c8020000fd
:020000040000fa
:04013800c8020000f9
:020000040000fa
:04013c00c8020000f5
:020000040000fa
:04014000c8020000f1
:020000040000fa
:04014400c8020000ed
:020000040000fa
:04014800c8020000e9
:020000040000fa
:04020800c802000028
:020000040000fa
:04020c00c802000024
:020000040000fa
:04021000c802000020
:020000040000fa
:04021400c80200001c
:020000040000fa
:04021800c802000018
:020000040000fa
:04021c00c802000014
:020000040000fa
:04022000c802000010
:020000040000fa
:04022400c80200000c
:020000040000fa
:04022800c802000008
:020000040000fa
:04022c00c802000004
:020000040000fa
:04023000c802000000
:020000040000fa
:04023400c8020000fc
:020000040000fa
:04023800c8020000f8
:020000040000fa
:04023c00c8020000f4
:020000040000fa
:04024000c8020000f0
:020000040000fa
:04024400c8020000ec
:020000040000fa
:04024800c8020000e8
:020000040000fa
:04024c00c8020000e4
:020000040000fa
:04025000c8020000e0
:020000040000fa
:04025400c8020000dc
:020000040000fa
:04025800c8020000d8
:020000040000fa
:04025c00c8020000d4
:020000040000fa
:04026000c8020000d0
:020000040000fa
:04026400c8020000cc
:020000040000fa
:04026800c8020000c8
:020000040000fa
:04026c00c8020000c4
:020000040000fa
:04027000c8020000c0
:020000040000fa
:04027400c8020000bc
:020000040000fa
:04027800c8020000b8
:020000040000fa
:04027c00c8020000b4
:020000040000fa
:04028000c8020000b0
:020000040000fa
:04028400c8020000ac
:020000040000fa
:04028800c8020000a8
:020000040000fa
:04028c00c8020000a4
:020000040000fa
:04029000c8020000a0
:020000040000fa
:04029400c80200009c
:020000040000fa
:04029800c802000098
:020000040000fa
:04029c00c802000094
:020000040000fa
:0402a000c802000090
:020000040000fa
:0402a400c80200008c
:020000040000fa
:0402a800c802000088
:020000040000fa
:0402ac00c802000084
:020000040000fa
:0402b000c802000080
:020000040000fa
:0402b400c80200007c
:020000040000fa
:0402b800c802000078
:020000040000fa
:0402bc00c802000074
:020000040000fa
:0402c000c802000070
:020000040000fa
:0402c400c80200006c
:020000040000fa
:0402c800c802000068
:020000040000fa
:0402cc00c802000064
:020000040000fa
:0402d000c802000060
:020000040000fa
:0402d400c80200005c
:020000040000fa
:0402d800c802000058
:020000040000fa
:0402dc00c802000054
:020000040000fa
:0402e000c802000050
:020000040000fa
:0402e400c80200004c
:020000040000fa
:0402e800c802000048
:020000040000fa
:0402ec00c802000044
:020000040000fa
:0402f000c802000040
:020000040000fa
:0402f400c80200003c
:020000040000fa
:0402f800c802000038
:020000040000fa
:0402fc00c802000034
:020000040000fa
:04030000c80200002f
:020000040000fa
:04030400c80200002b
:020000040000fa
:04030800c802000027
:020000040000fa
:04030c00c802000023
:020000040000fa
:04031000c80200001f
:020000040000fa
:04031400c80200001b
:020000040000fa
:04031800c802000017
:020000040000fa
:04031c00c802000013
:020000040000fa
:04032000c80200000f
:020000040000fa
:04032400c80200000b
:020000040000fa
:04032800c802000007
:020000040000fa
:04032c00c802000003
:020000040000fa
:04033000c8020000ff
:020000040000fa
:04033400c8020000fb
:020000040000fa
:04033800c8020000f7
:020000040000fa
:04033c00c8020000f3
:020000040000fa
:04034000c8020000ef
:020000040000fa
:04034400c8020000eb
:020000040000fa
:04034800c8020000e7
:020000040000fa
:100400002f8020000e7f22000e01880000000000d7
:10041000000020000000e000020032000001200087
:1004200020028800140007005b0007000000e000c5
:1004300003003a00005720000100200002003700ae
:100440000000200001002000810f70000100320038
:1004500014000700000020000000e000020032004d
:1004600000000200000000001a0502000000000069
:100470000040da000000fe004440a9000001200016
:100480000000e0000300320000002000a00188000e
:100490004440a800000006008a1f78008b1f7800e7
:1004a0000000060091018800800478000000eb0045
:1004b0001a003700e284440032a0b4009905ba0063
:1004c000e284440032a0b4009906ba00e2844400f9
:1004d00032a0b4000006eb00476fde00fd07b2005b
:1004e000636ce10003003a00ebff07000000eb0043
:1004f0000a003700606ce10004003a00005deb0088
:100500008b05e900fdff3e00040037006168e10053
:10051000010032000086eb000b00070019c7ba008b
:100520001905ba000e04e00003003a000a00e000da
:10053000e0ff3a0000000600fe07b2009e018800be
:100540008a047800f5ff3700395dba008b05e900b1
:100550000c003200295dba008b05e900080032006a
:100560000c00e00003003a00e284440032a0b40032
:10057000f5ff370019ddba008b05e900faff3a00f4
:100580008904e800e184440032a0b40000000600c1
:0c0590000040da000000fe000000050042
:020000040000fa
:10059c00446f0000205400006869000073200000c4
:1005ac0020200000576f0000726b0000000000005c
:020000040000fa
:1005bc000400fa00100798000000eb00000f780010
:1005cc0002003700400107001e0fe8001e009000db
:1005dc009e007800808f5000faff35000080fa00f2
:1005ec00000006000200fa00004f78001602a80076
:1005fc0000000000b0108000610060000000e0000e
:10060c00fcff3a008a40a900c00720009010880027
:10061c000000000050048000640060000000e00056
:10062c00fcff32008a40a9001222ef0000000000fb
:10063c0050048000640060000000e000fcff320009
:10064c008a40a9001e00fb009010880000000000ea
:10065c0050048000640060000000e000fcff3200e9
:10066c008a40a9001642a80000000000b0108000cb
:10067c00640060000000e000fcff3a008a40a90022
:10068c000080fa00000006000200fa00200320009f
:10069c00c7ff070080c3b300d2ff070090c3b300ad
:1006ac00d0ff070040c1b300ceff070000c8bf0059
:1006bc006f4f600000c7b3001e4f70001e407800e3
:1006cc00c8ff070000c8bf000080fb004400de002c
:1006dc00004f78009e40780063cf600040c5b300a7
:1006ec001e4f70001e407800beff0700c0c6b3004e
:1006fc00bcff0700800c2000adff070080c3b300d7
:10070c00b8ff0700c0c0b300b6ff070010c0b300ad
:10071c00b4ff070020002000a5ff07000080fa00ae
:10072c00000006000400fa002047980031479800aa
:10073c0000c4b300004f78002e4090000080fb00f6
:10074c004600dd00804078001e40780000c060004c
:10075c00004f78003e4090006f406000304798009a
:10076c003e4090001e4f700000c8b3001e4f70003a
:10077c001e4078009bff07000080fa000000060076
:10078c000200fa00004f78001602a80000000000da
:10079c00b0108000610060000000e000fcff3a0037
:1007ac008a40a900c00720009010880000000000bb
:1007bc0050048000640060000000e000fcff320088
:1007cc008a40a9000004200090108800000000005e
:1007dc0050048000640060000000e000fcff320068
:1007ec008a40a9001e00fb00901088000000000049
:1007fc0050048000640060000000e000fcff320048
:10080c008a40a9001642a80000000000b010800029
:10081c00640060000000e000fcff3a008a40a90080
:10082c000080fa00000006000600fa00200798007d
:10083c000000eb00000f78001602a800000000007a
:10084c00b0108000610060000000e000fcff3a0086
:10085c008a40a900c007200090108800000000000a
:10086c0050048000640060000000e000fcff3200d7
:10087c008a40a900570037001e007800e80f50008e
:10088c0012003a008040eb0010c0b300a5ff070037
:10089c001602a80000000000b0108000610060008b
:1008ac000000e000fcff3a008a40a900c0072000cd
:1008bc00901088000000000050048000640060006c
:1008cc000000e000fcff32008a40a9002e009000de
:1008dc0090407800214798002e0090000000e8001e
:1008ec00200798002e009000104078000004e000d3
:1008fc00060032001e007800ef0f5000030032009b
:10090c001e007800e70f500020003a000004200081
:10091c00901088000000000050048000640060000b
:10092c000000e000fcff32008a40a9002e4090003d
:10093c000000fb00901088000000000050048000b4
:10094c00640060000000e000fcff32008a40a90057
:10095c001642a80000000000b01080006400600087
:10096c000000e000fcff3a008a40a9002e00900035
:10097c00104078000004e000190032001e007800de
:10098c00ef0f50001600320011003700000c200051
:10099c00901088000000000050048000640060008b
:1009ac000000e000fcff32008a40a9002e409000bd
:1009bc000000fb0090108800000000005004800034
:1009cc00640060000000e000fcff32008a40a900d7
:1009dc001e0fe8001e007800ef0f5000a6ff340039
:1009ec000080fa00000006000000fa00213a8000a6
:1009fc00f08f2f0000806000203a8800f0ff290063
:100a0c0060198800c022ef00c822ef0017e2a9008d
:100a1c00d0092000a010880017e2a8008a40a90085
:100a2c000080fa00000006000000fa00eeff07004c
:100a3c0015ff0700e02c28007bff0700401f20005b
:100a4c00dbfe070080c1b300e6fe0700401f20005c
:100a5c00d7fe070080c1b300e2fe0700401f200054
:100a6c00d3fe070080c1b300defe0700401f20004c
:100a7c00cffe070080c1b300dafe0700401f200044
:100a8c00cbfe070080c1b300d6fe0700401f20003c
:100a9c00c7fe070080c1b300d2fe0700401f200034
:100aac00c3fe070080c1b300cefe0700401f20002c
:100abc00bffe0700c402aa00fcff3700390609007c
:100acc000000000000000600733e0900000000005a
:040adc000000060010
:020000040000fa
:100ae00000080000020000000200000017000000e3
:040af0000000000002
:020000040000fa
:020000040001f9
:0457f8000ff90000a5
:020000040000fa
:020000040001f9
:0457fc007f3f0000eb
:00000001FF
